:1000000014C02CC02BC02AC01EC228C027C026C0C6
:1000100025C024C023C022C021C020C01FC01EC0D4
:100020001DC01CC01BC01AC019C011241FBECFEDBB
:10003000CDBF10E0A0E6B0E0EEE1F5E002C0059033
:100040000D92A236B107D9F720E0A2E6B0E001C0D8
:100050001D92A138B207E1F71DD25FC2D1CF109235
:100060006500E2E6F0E0118210820895CF93C0911E
:100070006500C130C9F018F0C23079F134C08299FE
:1000800006C0109262001092640081E01EC0809150
:100090006200882341F18093630063E670E082E0B0
:1000A0002BD1109262001FC082E0BBD10A97D8F01A
:1000B00082990EC0C09362008091640091E0980F15
:1000C000909364008D3230F082E08093650002C02E
:1000D0001092650082E0CF91ADC1829B04C0C093B5
:1000E000620010926500CF9108951092690081E03E
:1000F000A1C180916900813069F018F08230F1F17E
:10010000089581E08ED1892B09F444C081E0809369
:10011000690090C180B38370209166009091670060
:10012000213099F01CF4222331F01DC0223091F0CF
:100130002330A9F018C0823011F4915003C08130EF
:1001400091F49F5F909367000EC08823B1F38330D2
:10015000C1F309C0833089F3882399F304C0813047
:1001600061F3823071F380936600809167008D5F48
:10017000873070F082E08093690008958091670075
:10018000809368001092670068E670E081E0B4D068
:1001900010926900089580917300882331F080B730
:1001A0008F7780BF1092730008958091740086BF8E
:1001B00012BE80B7806880BF81E08093730008958D
:1001C000CF93CFB7F894E199FECF41E050E060E0E3
:1001D00070E084E790E07ED1CFBFCF910895109278
:1001E0006B00EEDF80917400811103C080E1809389
:1001F00074000895CF93CFB7F894E199FECF41E012
:1002000050E060E070E084E790E072D1CFBFCF9122
:100210000895CF93C0916B00CC2321F0C13009F435
:1002200042C05DC082E07AD08823A1F082E087D00E
:10023000FC018081823069F480917300882341F051
:10024000D9DF81E080936B0084E080936A0044C032
:10025000B7DFA1DF81E062D0882309F440C081E0EC
:100260006ED0FC0190917400913A10F088E001C0CA
:1002700084E08093600020818091600012162CF44D
:10028000980F903E48F080EE04C0981B903120F407
:1002900080E18093740002C0909374008091740098
:1002A00086BF12BE1CC080E0BCD08D329140B8F039
:1002B00080916A00815080936A0081110CC0809106
:1002C000740086BF12BE80B7806880BFC093730081
:1002D00010926B0004C05FDF80E0CF91ABC0CF9184
:1002E0000895E8E7F0E0108213821682E5E7F0E077
:1002F0001082118212820895DB01282F30E0C9019B
:1003000063E070E0D6D0FC01E858FF4F8081811196
:1003100004C081E08083B283A1830895282F30E058
:10032000C90163E070E0C5D088589F4FFC0180810F
:10033000823019F4108281E0089580E0089590E001
:1003400063E070E0B6D088589F4FFC0181819281B4
:1003500008954FB7F89420E030E0A2E0C90163E0CF
:1003600070E0A7D0FC01E858FF4F8081823009F48B
:100370001082C90163E070E09CD0FC01E858FF4F97
:100380005081513021F4FC01E858FF4FA0832F5FCA
:100390003F4F2330310511F780E090E022E0FC016F
:1003A000EB58FF4F3081323009F410823081313008
:1003B00009F4208301968330910589F74FBF089592
:1003C000ECE6F0E011821082138212821582148210
:1003D0000895FC0120816FB7F894222301F1409128
:1003E0006C0050916D0030E0420F531F50936D0030
:1003F00040936C0040916E0050916F00420F531F6C
:1004000050936F0040936E004091700050917100C6
:10041000240F351F309371002093700010826FBF3E
:100420000895E82FF0E0EE0FFF1FE459FF4F8081A1
:1004300091810895E82FF0E0EE0FFF1FE459FF4F80
:100440001182108208951F920F920FB60F921124FD
:100450008F93809172008F5F809372008F910F90C5
:100460000FBE0F901F9018951FBC8BE08EBD8DE7BF
:1004700090E09BBD8ABD1DBC1CBC89B7806489BF50
:10048000BA9A83E080BF81E083BF81B38C7F81BB58
:100490008A980895E9DF25DF93DFA1DE26DEDFDD20
:1004A000789482E790E095DFB4DE23DEDFDD51DF74
:1004B000F8CF0024552704C0080E591F880F991F34
:1004C000009729F076956795B8F37105B9F7802DF7
:1004D000952F0895A82F862FE82FE199FECF05C00C
:1004E000EEBBE09AE3950DB20D924150C8F7089526
:1004F000A82F862F02C02D9104D04150E0F7089517
:10050000262FE199FECF1CBA8EBB2DBB0FB6F894F7
:0E051000E29AE19A0FBE01960895F894FFCF8B
:02051E000400D7
:00000001FF
